:1000000013C035C034C033C032C0B1C130C02FC0FE
:100010002EC02DC02CC02BC02AC029C028C027C08C
:1000200026C025C024C0D10311241FBECFEDCDBFF3
:1000300010E0A0E6B0E0EEE1F8E002C005900D921D
:10004000AC38B107D9F710E0ACE8B0E001C01D92C0
:10005000A73DB107E1F710E0C8E2D0E003C0229766
:10006000FE01D7D3C632D107D1F79BD1D6C3C8CFB3
:100070006830C0F4442359F028B381E090E002C016
:10008000880F991F6A95E2F7282B28BB089528B39B
:1000900081E090E002C0880F991F6A95E2F7809591
:1000A000822388BB0895CF93DF93FC014530F0F4A1
:1000B000262F372F842F90E063E070E096D360E026
:1000C00070E00DC0EF01C60FD71FD90153E00D90AE
:1000D00009925150E1F72D5F3F4F6D5F7F4F6817D9
:1000E000790781F74487458780E001C081E0DF918F
:1000F000CF910895D8DF0895DF93CF93CDB7DEB7C2
:10010000C350CDBFFC0185859485282F2F5F25879F
:10011000891708F01586858590E063E070E065D367
:10012000DE011196E80FF91F83E001900D928150D6
:10013000E1F769817A818B8190E0CD5FCDBFCF916E
:10014000DF910895CF93DF93EC01888999892FEF90
:100150008F3F920739F09C0121503040398B288B1A
:10016000009721F080E0DF91CF910895CE010196B4
:10017000C3DF6F87788B898B8FEFF5CFFC0120E28F
:1001800030E01586168621503040729621153105D3
:10019000C1F7FC01EF5BFD4F71836083805C9D4F75
:1001A000FC0110820895AF92BF92CF92DF92EF923E
:1001B000FF921F93CF93DF93EC0110E090E4C92EE0
:1001C00092E0D92ECC0EDD1E81E4A82E82E0B82E5E
:1001D000AC0EBD1E21C0F501A081B181ED91FC9155
:1001E0001197812F90E062E170E0FFD27E01E80E6E
:1001F000F91E812F90E062E170E0F7D29E01280F96
:10020000391F0190F081E02DCD01D7016C91D9010A
:100210001F964C9109951F5FF60180811817D8F23F
:10022000DF91CF911F91FF90EF90DF90CF90BF9023
:10023000AF900895AF92BF92CF92DF92EF92FF926C
:100240001F93CF93DF93EC0110E030E4C32E32E034
:10025000D32EC80ED91E21E4A22E22E0B22EA80E63
:10026000B91E2BC0812F90E062E170E0BED28C0FEE
:100270009D1F68DF882301F1F501A081B181ED9117
:10028000FC911197812F90E062E170E0AED27E0187
:10029000E80EF91E812F90E062E170E0A6D29E0187
:1002A000280F391F0190F081E02DCD01D7016C910D
:1002B000D9011F964C9109951F5FF601808118178F
:1002C00088F2DF91CF911F91FF90EF90DF90CF9058
:1002D000BF90AF90089580918D00882361F0809148
:1002E0008E00982F9F5F90938E00893C20F0109293
:1002F0008F0010928D00C89B2AC080918B008823AC
:1003000031F180919000882301F580918F008F5FFB
:1003100080938F00833081F480918E00893C90F42B
:1003200010928F0010928E0010928B0010928D0010
:1003300081E0809390000895813021F480938D00B6
:1003400010928E0010928B0005C081E0089581E02C
:1003500080938B0080E0089584E08EBD8EEC9FEF4B
:100360009DBD8CBD89B7806889BF789408951F9220
:100370000F920FB60F9211248F939F9381E0809379
:100380008C008CE99FEF9DBD8CBD84E08EBD89B74C
:10039000806889BF9F918F910F900FBE0F901F9023
:1003A00018952F923F924F925F926F927F928F9209
:1003B0009F92AF92BF92CF92DF92EF92FF920F93F4
:1003C0001F93DF93CF93CDB7DEB7CD59CDBFDE01FD
:1003D0001396E1E9F0E08EE001900D928150E1F793
:1003E0001E8E1F8E82E0898BDE015296FE013396AF
:1003F0008EE001900D928150E1F7CE0142967CDEB5
:1004000068A379A38AA3DE011396E1E9F0E08EE008
:1004100001900D928150E1F718AA19AA83E08BA3ED
:10042000DE019496FE0133968EE001900D9281508C
:10043000E1F7CE01849660DE6AAB7BAB8CABDE016C
:100440001396E1E9F0E08EE001900D928150E1F722
:10045000FE01EE5BFF4F1082FE01ED5BFF4F10824D
:1004600081E08DABDE01D696FE0133968EE00190E1
:100470000D928150E1F78E010C5B1F4FCE01C696A5
:100480003BDED8016C9311967C93119712968C9356
:1004900089E890E09A838983CE01875A9F4FBE01F5
:1004A0006F5F7F4F6BDEDE01A95BBF4FFE01719670
:1004B00082E101900D928150E1F7FE01E756FD4F78
:1004C00040814032C1F0842F90E062E170E08DD134
:1004D0009E01275A3F4FD901A80FB91FFE01E95BC2
:1004E000FF4F82E101900D928150E1F74F5FFE01D5
:1004F000E756FD4F4083DE01A95BBF4FFE01B39677
:1005000082E101900D928150E1F7FE01E756FD4F27
:1005100040814032C1F0842F90E062E170E065D10B
:100520009E01275A3F4FD901A80FB91FFE01E95B71
:10053000FF4F82E101900D928150E1F74F5FFE0184
:10054000E756FD4F4083DE01A95BBF4FFE01F596E4
:1005500082E101900D928150E1F7FE01E756FD4FD7
:1005600040814032C1F0842F90E062E170E03DD1E3
:100570009E01275A3F4FD901A80FB91FFE01E95B21
:10058000FF4F82E101900D928150E1F74F5FFE0134
:10059000E756FD4F40838E01075A1F4FC80103DE07
:1005A000B3E0EB2EF12CEC0EFD1EA2E03A2EF2E1B0
:1005B0008F2E912C8C0E9D1EE3E02E2E74E2672E62
:1005C000712C6C0E7D1E66E3462E512C4C0E5D1E6A
:1005D00054E4A52EB12CAC0EBD1E47E4C42ED12C84
:1005E000CC0EDD1E80918C008823E1F310928C00EC
:1005F00072DE813009F0D2C080918400982F9F5F15
:1006000090938400853010F03092840080918400B3
:1006100090E06EE070E0E9D0D701FC01EF56FF4FAB
:100620008EE001900D928150E1F7398AF401D701F3
:100630008EE00D9001928150E1F7C4015DDD68A369
:1006400079A38AA38091840090E06EE070E0CDD021
:10065000D701FC01EF56FF4F8EE001900D928150C3
:10066000E1F72BA2F301D7018EE00D9001928150AA
:10067000E1F7C30141DD6AAB7BAB8CABF701AFE9BE
:10068000B0E08EE00D9001928150E1F7B1E0BDAB9A
:10069000F201D7018EE00D9001928150E1F7C20185
:1006A0002BDDF501608371838283F601DE015196B3
:1006B00082E10D9001928150E1F720E01AC0822F73
:1006C00090E062E170E091D0F801E80FF91F8081BD
:1006D000823071F4822F90E062E170E086D0F80100
:1006E000E80FF91FD60182E10D9001928150E1F7E8
:1006F0002F5FC756DD4F8881C959D2402817F8F2BD
:10070000F601DE01939692E10D9001929150E1F78E
:10071000D80162E170E069D0A801480F591FF801C3
:100720001BC080818330B9F4CF01960162E1C456C9
:10073000DD4FF983E883CC59D240F90101909F0144
:10074000FC010192CF016150C1F7C456DD4FE88131
:10075000F981CC59D2407296E417F50711F7F601EA
:10076000CE01C59622E1BD01DC010D90CD010192C3
:100770002150D1F7DB010FC08C91813059F4FD017C
:10078000C60122E1BD01DC010D90CD010192215095
:10079000D1F7DB015296A417B50771F7C8014ADDFE
:1007A00021CFCF93DF93C1E9D0E0CE0160E670E0C6
:1007B00041E0A0DCCE010E9663E670E041E09ADCF9
:1007C000CE014C9666E670E042E094DCCE018A965B
:1007D0006CE670E044E08EDCCE01C89668E770E01D
:1007E00044E088DCDF91CF9108955527002480FFF5
:1007F00002C0060E571F660F771F6115710521F0A5
:1008000096958795009799F7952F802D0895EE0F6F
:0E081000FF1F0590F491E02D0994F894FFCF9E
:10081E00FFFFFF00FFFFFF4600004600FF14000031
:10082E003200FF3200001400FF1400001400FF1409
:0C083E0000003C00040000000038000135
:00000001FF
