:1000000012C02AC029C028C027C032C025C024C0C1
:1000100023C022C021C020C01FC01EC01DC01CC0E4
:100020001BC01AC019C011241FBECFEDCDBF10E0F8
:10003000A0E6B0E0EAE4F5E002C005900D92A43B32
:10004000B107D9F710E0A4EBB0E001C01D92A53CC8
:10005000B107E1F793D177C2D3CF84E08EBD82EEB2
:1000600092ED9DBD8CBD89B7806889BF7894089555
:100070001F920F920FB60F9211240F931F932F937D
:100080003F934F935F936F937F938F939F93AF9320
:10009000BF93CF93DF93EF93FF9320E030E04FEFD8
:1000A000C90167E070E03DD2FC01E256FF4F868156
:1000B000882309F042C0C90167E070E032D2FC0138
:1000C000E256FF4F0480F581E02DC90167E070E042
:1000D00028D2DC01A256BF4F0D90BC91A02DC901C2
:1000E00067E070E01ED2EC01C256DF4F8B8190E0DA
:1000F00063E070E016D212960D90BC91A02DA80F6F
:10010000B91F11960D911C911297EF012196C9010B
:1001100067E070E006D282569F4FDC011596DC93B3
:10012000CE931497E017F10740F0C90167E070E043
:10013000F8D1FC01E256FF4F46832F5F3F4F23303B
:10014000310509F0ADCF8091BB008823F1F4809197
:10015000B9009091BA002091B7003091B800AC017D
:100160004F5F5F4F5093BA004093B90082179307D7
:1001700060F08FEF8093BB008091BC009091BD0038
:100180000196E7EBF0E0968385838091C200882397
:10019000F1F48091C0009091C1002091BE00309197
:1001A000BF00AC014F5F5F4F5093C1004093C00050
:1001B0008217930760F08FEF8093C2008091C30095
:1001C0009091C40001969093C4008093C30082EE86
:1001D0009FEF9DBD8CBD84E08EBD89B7806889BFCF
:1001E000FF91EF91DF91CF91BF91AF919F918F914F
:1001F0007F916F915F914F913F912F911F910F913F
:100200000F900FBE0F901F90189520E030E016C0A1
:10021000C39A4FED53E964E0415050406040E1F72C
:1002200000C00000C3984FED53E964E041505040D6
:100230006040E1F700C000002F5F3F4F28173907EB
:100240003CF36FE171EA87E0615070408040E1F774
:1002500000C0000008958091B600882309F456C0BC
:10026000829B0FC08091B500882341F08FEF80936F
:10027000B4008091B3008F5F8093B3001092B500FB
:1002800003C08FEF8093B5008091B400882309F4F8
:1002900074C08091B300853018F082E08093B30081
:1002A0008AE890E09093AD008093AC009093A60014
:1002B0008093A5008091B30090E0880F991F880F6C
:1002C000991F86579F4FEEE9F0E090939F0080932F
:1002D0009E008FEF8683A0919E00B0919F001196A3
:1002E0009C9193838587A091A500B091A60011965B
:1002F0009C919287848BA091AC00B091AD00119637
:100300008C911197818B1092B4000895829B18C034
:100310008091BB00882389F18091B9009091BA0047
:10032000009759F08091BC009091BD0086309105F6
:1003300020F51092BA001092B9001092BB000895F7
:100340008091BC009091BD008230910558F0809161
:10035000BC009091BD008430910520F48FEF809314
:10036000B60008951092BA001092B9001092BD0024
:100370001092BC008FEF8093BB000895CF93DF9362
:100380008FE187BB2FEF2093A400EEE9F0E0A0916E
:100390009E00B0919F0011968C9183832587A09138
:1003A000A500B091A60011968C918287248BA09114
:1003B000AC00B091AD0011968C91818B88EE93E0EA
:1003C0009093B8008093B7002093BB0046DE85B7BA
:1003D000806285BF40E0C1E0D0E09CC0842F90E007
:1003E00067E070E09ED0FC01E256FF4F86818823D3
:1003F00009F48FC0842F90E067E070E092D0FC0198
:10040000E256FF4F23812F5F842F90E067E070E07A
:1004100088D0FC01E256FF4F2383842F90E067E0F1
:1004200070E07FD0FC01E256FF4F2381842F90E0E3
:1004300067E070E076D0FC01E256FF4F0190F0815A
:10044000E02D8081281748F0842F90E067E070E06D
:1004500068D0FC01E256FF4F1382842F90E067E0E2
:1004600070E05FD0FC01E256FF4F0190F081E02D7B
:10047000842F90E067E070E054D0DC01A256BF4FBB
:1004800013968C91139790E063E070E04AD002805D
:10049000F381E02DE80FF91F80818F3F99F4A8B315
:1004A000842F90E067E070E03CD0FC01E256FF4F03
:1004B0002281CE0102C0880F991F2A95E2F7A82B4E
:1004C000A8BB14C0A8B3842F90E067E070E029D0E7
:1004D000FC01E256FF4F2281CE0102C0880F991F16
:1004E0002A95E2F79C0120952A2328BB842F90E0CF
:1004F00067E070E016D0FC01E256FF4F1682842FB1
:1005000090E067E070E00DD0FC01E256FF4F1582ED
:1005100014824F5F433008F461CF9DDE889540E040
:100520005DCF5527002480FF02C0060E571F660FBF
:10053000771F6115710521F096958795009799F7BA
:0A054000952F802D0895F894FFCF49
:10054A00FFFFFF00FFFFFF4600004600FF320000EA
:10055A003200FF3200003200FF320000FA00FF1EB4
:10056A0000001E00FF1E0000460001016300010199
:10057A0060000202660006066C0004047E008E001B
:10058A0002000000008E0003000000008E0004003C
:04059A000000000459
:00000001FF
