:1000000012C02AC029C028C027C032C025C024C0C1
:1000100023C022C021C020C01FC01EC01DC01CC0E4
:100020001BC01AC019C011241FBECFEDCDBF10E0F8
:10003000A0E6B0E0EAEAF0E002C005900D92A23638
:10004000B107D9F710E0A2E6B0E001C01D92A336D7
:10005000B107E1F724D027C0D3CF789484E08EBDD8
:100060008EEC9FEF9DBD8CBD89B7806889BF0895D8
:100070001F920F920FB60F9211248F939F9388E1D6
:100080009CEF9DBD8CBD84E08EBD89B7806889BF23
:100090009F918F910F900FBE0F901F901895DDDFED
:0A00A0008FE187BBFFCFF894FFCF7C
:0200AA00040050
:00000001FF
